{
  "contractName": "Hotel",
  "abi": [
    {
      "inputs": [],
      "payable": false,
      "stateMutability": "nonpayable",
      "type": "constructor"
    },
    {
      "anonymous": false,
      "inputs": [
        {
          "indexed": false,
          "internalType": "uint256",
          "name": "roomId",
          "type": "uint256"
        },
        {
          "indexed": false,
          "internalType": "address",
          "name": "guest",
          "type": "address"
        }
      ],
      "name": "CheckedIn",
      "type": "event"
    },
    {
      "anonymous": false,
      "inputs": [
        {
          "indexed": false,
          "internalType": "uint256",
          "name": "roomId",
          "type": "uint256"
        },
        {
          "indexed": false,
          "internalType": "address",
          "name": "guest",
          "type": "address"
        }
      ],
      "name": "CheckedOut",
      "type": "event"
    },
    {
      "anonymous": false,
      "inputs": [
        {
          "indexed": false,
          "internalType": "uint256",
          "name": "roomId",
          "type": "uint256"
        }
      ],
      "name": "MaintenanceCompleted",
      "type": "event"
    },
    {
      "anonymous": false,
      "inputs": [
        {
          "indexed": false,
          "internalType": "uint256",
          "name": "roomId",
          "type": "uint256"
        }
      ],
      "name": "MaintenanceRequested",
      "type": "event"
    },
    {
      "anonymous": false,
      "inputs": [
        {
          "indexed": false,
          "internalType": "uint256",
          "name": "roomId",
          "type": "uint256"
        },
        {
          "indexed": false,
          "internalType": "string",
          "name": "orderDetails",
          "type": "string"
        }
      ],
      "name": "RoomServiceOrdered",
      "type": "event"
    },
    {
      "constant": true,
      "inputs": [
        {
          "internalType": "address",
          "name": "",
          "type": "address"
        }
      ],
      "name": "bookingDetails",
      "outputs": [
        {
          "internalType": "uint256",
          "name": "startDate",
          "type": "uint256"
        },
        {
          "internalType": "uint256",
          "name": "endDate",
          "type": "uint256"
        },
        {
          "internalType": "string",
          "name": "roomType",
          "type": "string"
        },
        {
          "internalType": "string",
          "name": "status",
          "type": "string"
        }
      ],
      "payable": false,
      "stateMutability": "view",
      "type": "function"
    },
    {
      "constant": true,
      "inputs": [],
      "name": "foodBuffet",
      "outputs": [
        {
          "internalType": "uint256",
          "name": "date",
          "type": "uint256"
        },
        {
          "internalType": "address payable",
          "name": "booker",
          "type": "address"
        },
        {
          "internalType": "uint256",
          "name": "attendees",
          "type": "uint256"
        },
        {
          "internalType": "uint256",
          "name": "price",
          "type": "uint256"
        },
        {
          "internalType": "bool",
          "name": "isBooked",
          "type": "bool"
        }
      ],
      "payable": false,
      "stateMutability": "view",
      "type": "function"
    },
    {
      "constant": true,
      "inputs": [
        {
          "internalType": "uint256",
          "name": "",
          "type": "uint256"
        }
      ],
      "name": "maintenanceRequired",
      "outputs": [
        {
          "internalType": "bool",
          "name": "",
          "type": "bool"
        }
      ],
      "payable": false,
      "stateMutability": "view",
      "type": "function"
    },
    {
      "constant": true,
      "inputs": [],
      "name": "owner",
      "outputs": [
        {
          "internalType": "address payable",
          "name": "",
          "type": "address"
        }
      ],
      "payable": false,
      "stateMutability": "view",
      "type": "function"
    },
    {
      "constant": true,
      "inputs": [],
      "name": "partyHall",
      "outputs": [
        {
          "internalType": "uint256",
          "name": "date",
          "type": "uint256"
        },
        {
          "internalType": "address payable",
          "name": "booker",
          "type": "address"
        },
        {
          "internalType": "uint256",
          "name": "duration",
          "type": "uint256"
        },
        {
          "internalType": "uint256",
          "name": "price",
          "type": "uint256"
        },
        {
          "internalType": "bool",
          "name": "isBooked",
          "type": "bool"
        }
      ],
      "payable": false,
      "stateMutability": "view",
      "type": "function"
    },
    {
      "constant": true,
      "inputs": [
        {
          "internalType": "uint256",
          "name": "",
          "type": "uint256"
        }
      ],
      "name": "roomServiceOrders",
      "outputs": [
        {
          "internalType": "string",
          "name": "",
          "type": "string"
        }
      ],
      "payable": false,
      "stateMutability": "view",
      "type": "function"
    },
    {
      "constant": true,
      "inputs": [
        {
          "internalType": "uint256",
          "name": "",
          "type": "uint256"
        }
      ],
      "name": "rooms",
      "outputs": [
        {
          "internalType": "uint256",
          "name": "id",
          "type": "uint256"
        },
        {
          "internalType": "string",
          "name": "name",
          "type": "string"
        },
        {
          "internalType": "string",
          "name": "hotel_name",
          "type": "string"
        },
        {
          "internalType": "uint256",
          "name": "price",
          "type": "uint256"
        },
        {
          "internalType": "string",
          "name": "status",
          "type": "string"
        },
        {
          "internalType": "address payable",
          "name": "guest",
          "type": "address"
        },
        {
          "internalType": "uint256",
          "name": "bookingExpires",
          "type": "uint256"
        },
        {
          "internalType": "bool",
          "name": "isCheckedIn",
          "type": "bool"
        },
        {
          "internalType": "string",
          "name": "roomType",
          "type": "string"
        }
      ],
      "payable": false,
      "stateMutability": "view",
      "type": "function"
    },
    {
      "constant": true,
      "inputs": [],
      "name": "roomsCount",
      "outputs": [
        {
          "internalType": "uint256",
          "name": "",
          "type": "uint256"
        }
      ],
      "payable": false,
      "stateMutability": "view",
      "type": "function"
    },
    {
      "constant": false,
      "inputs": [
        {
          "internalType": "string",
          "name": "_name",
          "type": "string"
        },
        {
          "internalType": "string",
          "name": "_roomType",
          "type": "string"
        }
      ],
      "name": "addRoom",
      "outputs": [],
      "payable": false,
      "stateMutability": "nonpayable",
      "type": "function"
    },
    {
      "constant": false,
      "inputs": [
        {
          "internalType": "uint256",
          "name": "_roomId",
          "type": "uint256"
        },
        {
          "internalType": "uint256",
          "name": "_days",
          "type": "uint256"
        },
        {
          "internalType": "string",
          "name": "_roomType",
          "type": "string"
        }
      ],
      "name": "bookRoom",
      "outputs": [],
      "payable": true,
      "stateMutability": "payable",
      "type": "function"
    },
    {
      "constant": false,
      "inputs": [
        {
          "internalType": "uint256",
          "name": "_roomId",
          "type": "uint256"
        }
      ],
      "name": "checkIn",
      "outputs": [],
      "payable": false,
      "stateMutability": "nonpayable",
      "type": "function"
    },
    {
      "constant": false,
      "inputs": [
        {
          "internalType": "uint256",
          "name": "_roomId",
          "type": "uint256"
        }
      ],
      "name": "checkOut",
      "outputs": [],
      "payable": false,
      "stateMutability": "nonpayable",
      "type": "function"
    },
    {
      "constant": false,
      "inputs": [
        {
          "internalType": "uint256",
          "name": "_roomId",
          "type": "uint256"
        }
      ],
      "name": "cancelBooking",
      "outputs": [],
      "payable": false,
      "stateMutability": "nonpayable",
      "type": "function"
    },
    {
      "constant": true,
      "inputs": [
        {
          "internalType": "address",
          "name": "_guest",
          "type": "address"
        }
      ],
      "name": "currentStatus",
      "outputs": [
        {
          "internalType": "string",
          "name": "",
          "type": "string"
        },
        {
          "internalType": "uint256",
          "name": "",
          "type": "uint256"
        },
        {
          "internalType": "uint256",
          "name": "",
          "type": "uint256"
        },
        {
          "internalType": "string",
          "name": "",
          "type": "string"
        },
        {
          "internalType": "string",
          "name": "",
          "type": "string"
        }
      ],
      "payable": false,
      "stateMutability": "view",
      "type": "function"
    },
    {
      "constant": false,
      "inputs": [
        {
          "internalType": "uint256",
          "name": "roomId",
          "type": "uint256"
        }
      ],
      "name": "requestMaintenance",
      "outputs": [],
      "payable": false,
      "stateMutability": "nonpayable",
      "type": "function"
    },
    {
      "constant": false,
      "inputs": [
        {
          "internalType": "uint256",
          "name": "roomId",
          "type": "uint256"
        }
      ],
      "name": "completeMaintenance",
      "outputs": [],
      "payable": false,
      "stateMutability": "nonpayable",
      "type": "function"
    },
    {
      "constant": false,
      "inputs": [
        {
          "internalType": "uint256",
          "name": "roomId",
          "type": "uint256"
        },
        {
          "internalType": "string",
          "name": "orderDetails",
          "type": "string"
        }
      ],
      "name": "orderRoomService",
      "outputs": [],
      "payable": false,
      "stateMutability": "nonpayable",
      "type": "function"
    },
    {
      "constant": false,
      "inputs": [
        {
          "internalType": "uint256",
          "name": "_date",
          "type": "uint256"
        },
        {
          "internalType": "uint256",
          "name": "_duration",
          "type": "uint256"
        }
      ],
      "name": "bookPartyHall",
      "outputs": [],
      "payable": true,
      "stateMutability": "payable",
      "type": "function"
    },
    {
      "constant": false,
      "inputs": [],
      "name": "cancelPartyHallBooking",
      "outputs": [],
      "payable": false,
      "stateMutability": "nonpayable",
      "type": "function"
    },
    {
      "constant": false,
      "inputs": [
        {
          "internalType": "uint256",
          "name": "_date",
          "type": "uint256"
        },
        {
          "internalType": "uint256",
          "name": "_attendees",
          "type": "uint256"
        }
      ],
      "name": "bookBuffet",
      "outputs": [],
      "payable": true,
      "stateMutability": "payable",
      "type": "function"
    },
    {
      "constant": false,
      "inputs": [],
      "name": "cancelBuffetBooking",
      "outputs": [],
      "payable": false,
      "stateMutability": "nonpayable",
      "type": "function"
    }
  ],
  "bytecode": "0x60806040523480156200001157600080fd5b5033600560006101000a81548173ffffffffffffffffffffffffffffffffffffffff021916908373ffffffffffffffffffffffffffffffffffffffff160217905550620000cf6040518060400160405280600681526020017f526f6f6d203100000000000000000000000000000000000000000000000000008152506040518060400160405280600681526020017f73696e676c650000000000000000000000000000000000000000000000000000815250620001cd60201b60201c565b6200014b6040518060400160405280600681526020017f526f6f6d203200000000000000000000000000000000000000000000000000008152506040518060400160405280600681526020017f646f75626c650000000000000000000000000000000000000000000000000000815250620001cd60201b60201c565b620001c76040518060400160405280600681526020017f526f6f6d203300000000000000000000000000000000000000000000000000008152506040518060400160405280600581526020017f7375697465000000000000000000000000000000000000000000000000000000815250620001cd60201b60201c565b620005bb565b60046000815480929190600101919050555060405180610140016040528060045481526020018381526020016040518060400160405280600781526020017f486f74656c2031000000000000000000000000000000000000000000000000008152508152602001670de0b6b3a764000081526020016040518060400160405280600981526020017f617661696c61626c6500000000000000000000000000000000000000000000008152508152602001600073ffffffffffffffffffffffffffffffffffffffff168152602001600081526020016000151581526020016000604051908082528060200260200182016040528015620002e157816020015b6060815260200190600190039081620002cb5790505b5081526020018281525060008060045481526020019081526020016000206000820151816000015560208201518160010190805190602001906200032792919062000428565b5060408201518160020190805190602001906200034692919062000428565b506060820151816003015560808201518160040190805190602001906200036f92919062000428565b5060a08201518160050160006101000a81548173ffffffffffffffffffffffffffffffffffffffff021916908373ffffffffffffffffffffffffffffffffffffffff16021790555060c0820151816006015560e08201518160070160006101000a81548160ff02191690831515021790555061010082015181600801908051906020019062000400929190620004af565b506101208201518160090190805190602001906200042092919062000428565b509050505050565b828054600181600116156101000203166002900490600052602060002090601f016020900481019282601f106200046b57805160ff19168380011785556200049c565b828001600101855582156200049c579182015b828111156200049b5782518255916020019190600101906200047e565b5b509050620004ab919062000516565b5090565b82805482825590600052602060002090810192821562000503579160200282015b8281111562000502578251829080519060200190620004f192919062000428565b5091602001919060010190620004d0565b5b5090506200051291906200053e565b5090565b6200053b91905b80821115620005375760008160009055506001016200051d565b5090565b90565b6200056c91905b808211156200056857600081816200055e91906200056f565b5060010162000545565b5090565b90565b50805460018160011615610100020316600290046000825580601f10620005975750620005b8565b601f016020900490600052602060002090810190620005b7919062000516565b5b50565b613bb380620005cb6000396000f3fe60806040526004361061012a5760003560e01c8063530128fe116100ab578063a6f2f9261161006f578063a6f2f926146108b4578063abb9dc0d14610983578063af76969014610a55578063d23d0d3614610bb4578063e95a644f14610c2b578063ffea5fd014610c665761012a565b8063530128fe1461060b57806369930b40146106435780637b66e2b71461065a5780638b6fbdb11461080a5780638da5cb5b1461085d5761012a565b80631cef9193116100f25780631cef91931461047e5780631d5fc9e1146104b6578063214110d61461056a5780633368fdc8146105a557806341b82f3f146105e05761012a565b80630449f8fe1461012f5780630dca825e146101a65780630f91bef3146101e15780631bae0ac8146101f85780631bd2eeee14610443575b600080fd5b34801561013b57600080fd5b50610144610daa565b604051808681526020018573ffffffffffffffffffffffffffffffffffffffff1673ffffffffffffffffffffffffffffffffffffffff168152602001848152602001838152602001821515151581526020019550505050505060405180910390f35b3480156101b257600080fd5b506101df600480360360208110156101c957600080fd5b8101908080359060200190929190505050610dfb565b005b3480156101ed57600080fd5b506101f661139a565b005b34801561020457600080fd5b506102316004803603602081101561021b57600080fd5b810190808035906020019092919050505061152b565b604051808a81526020018060200180602001898152602001806020018873ffffffffffffffffffffffffffffffffffffffff1673ffffffffffffffffffffffffffffffffffffffff168152602001878152602001861515151581526020018060200185810385528d818151815260200191508051906020019080838360005b838110156102cb5780820151818401526020810190506102b0565b50505050905090810190601f1680156102f85780820380516001836020036101000a031916815260200191505b5085810384528c818151815260200191508051906020019080838360005b83811015610331578082015181840152602081019050610316565b50505050905090810190601f16801561035e5780820380516001836020036101000a031916815260200191505b5085810383528a818151815260200191508051906020019080838360005b8381101561039757808201518184015260208101905061037c565b50505050905090810190601f1680156103c45780820380516001836020036101000a031916815260200191505b50858103825286818151815260200191508051906020019080838360005b838110156103fd5780820151818401526020810190506103e2565b50505050905090810190601f16801561042a5780820380516001836020036101000a031916815260200191505b509d505050505050505050505050505060405180910390f35b34801561044f57600080fd5b5061047c6004803603602081101561046657600080fd5b8101908080359060200190929190505050611806565b005b6104b46004803603604081101561049457600080fd5b810190808035906020019092919080359060200190929190505050611b98565b005b3480156104c257600080fd5b506104ef600480360360208110156104d957600080fd5b8101908080359060200190929190505050611d71565b6040518080602001828103825283818151815260200191508051906020019080838360005b8381101561052f578082015181840152602081019050610514565b50505050905090810190601f16801561055c5780820380516001836020036101000a031916815260200191505b509250505060405180910390f35b34801561057657600080fd5b506105a36004803603602081101561058d57600080fd5b8101908080359060200190929190505050611e21565b005b3480156105b157600080fd5b506105de600480360360208110156105c857600080fd5b8101908080359060200190929190505050611f2d565b005b3480156105ec57600080fd5b506105f56120c0565b6040518082815260200191505060405180910390f35b6106416004803603604081101561062157600080fd5b8101908080359060200190929190803590602001909291905050506120c6565b005b34801561064f57600080fd5b50610658612299565b005b34801561066657600080fd5b506106a96004803603602081101561067d57600080fd5b81019080803573ffffffffffffffffffffffffffffffffffffffff16906020019092919050505061242a565b60405180806020018681526020018581526020018060200180602001848103845289818151815260200191508051906020019080838360005b838110156106fd5780820151818401526020810190506106e2565b50505050905090810190601f16801561072a5780820380516001836020036101000a031916815260200191505b50848103835286818151815260200191508051906020019080838360005b83811015610763578082015181840152602081019050610748565b50505050905090810190601f1680156107905780820380516001836020036101000a031916815260200191505b50848103825285818151815260200191508051906020019080838360005b838110156107c95780820151818401526020810190506107ae565b50505050905090810190601f1680156107f65780820380516001836020036101000a031916815260200191505b509850505050505050505060405180910390f35b34801561081657600080fd5b506108436004803603602081101561082d57600080fd5b8101908080359060200190929190505050612625565b604051808215151515815260200191505060405180910390f35b34801561086957600080fd5b50610872612645565b604051808273ffffffffffffffffffffffffffffffffffffffff1673ffffffffffffffffffffffffffffffffffffffff16815260200191505060405180910390f35b610981600480360360608110156108ca57600080fd5b810190808035906020019092919080359060200190929190803590602001906401000000008111156108fb57600080fd5b82018360208201111561090d57600080fd5b8035906020019184600183028401116401000000008311171561092f57600080fd5b91908080601f016020809104026020016040519081016040528093929190818152602001838380828437600081840152601f19601f82011690508083019250505050505050919291929050505061266b565b005b34801561098f57600080fd5b50610a53600480360360408110156109a657600080fd5b8101908080359060200190929190803590602001906401000000008111156109cd57600080fd5b8201836020820111156109df57600080fd5b80359060200191846001830284011164010000000083111715610a0157600080fd5b91908080601f016020809104026020016040519081016040528093929190818152602001838380828437600081840152601f19601f820116905080830192505050505050509192919290505050612cbd565b005b348015610a6157600080fd5b50610bb260048036036040811015610a7857600080fd5b8101908080359060200190640100000000811115610a9557600080fd5b820183602082011115610aa757600080fd5b80359060200191846001830284011164010000000083111715610ac957600080fd5b91908080601f016020809104026020016040519081016040528093929190818152602001838380828437600081840152601f19601f82011690508083019250505050505050919291929080359060200190640100000000811115610b2c57600080fd5b820183602082011115610b3e57600080fd5b80359060200191846001830284011164010000000083111715610b6057600080fd5b91908080601f016020809104026020016040519081016040528093929190818152602001838380828437600081840152601f19601f820116905080830192505050505050509192919290505050612e46565b005b348015610bc057600080fd5b50610bc9613095565b604051808681526020018573ffffffffffffffffffffffffffffffffffffffff1673ffffffffffffffffffffffffffffffffffffffff168152602001848152602001838152602001821515151581526020019550505050505060405180910390f35b348015610c3757600080fd5b50610c6460048036036020811015610c4e57600080fd5b81019080803590602001909291905050506130e6565b005b348015610c7257600080fd5b50610cb560048036036020811015610c8957600080fd5b81019080803573ffffffffffffffffffffffffffffffffffffffff16906020019092919050505061359e565b604051808581526020018481526020018060200180602001838103835285818151815260200191508051906020019080838360005b83811015610d05578082015181840152602081019050610cea565b50505050905090810190601f168015610d325780820380516001836020036101000a031916815260200191505b50838103825284818151815260200191508051906020019080838360005b83811015610d6b578082015181840152602081019050610d50565b50505050905090810190601f168015610d985780820380516001836020036101000a031916815260200191505b50965050505050505060405180910390f35b600b8060000154908060010160009054906101000a900473ffffffffffffffffffffffffffffffffffffffff16908060020154908060030154908060040160009054906101000a900460ff16905085565b600081118015610e0d57506004548111155b610e7f576040517f08c379a000000000000000000000000000000000000000000000000000000000815260040180806020018281038252600f8152602001807f496e76616c696420726f6f6d204944000000000000000000000000000000000081525060200191505060405180910390fd5b610f6b6000808381526020019081526020016000206004018054600181600116156101000203166002900480601f016020809104026020016040519081016040528092919081815260200182805460018160011615610100020316600290048015610f2b5780601f10610f0057610100808354040283529160200191610f2b565b820191906000526020600020905b815481529060010190602001808311610f0e57829003601f168201915b50505050506040518060400160405280600681526020017f626f6f6b656400000000000000000000000000000000000000000000000000008152506136fe565b610fc0576040517f08c379a0000000000000000000000000000000000000000000000000000000008152600401808060200182810382526025815260200180613a8a6025913960400191505060405180910390fd5b600560009054906101000a900473ffffffffffffffffffffffffffffffffffffffff1673ffffffffffffffffffffffffffffffffffffffff163373ffffffffffffffffffffffffffffffffffffffff16148061107c575060008082815260200190815260200160002060050160009054906101000a900473ffffffffffffffffffffffffffffffffffffffff1673ffffffffffffffffffffffffffffffffffffffff163373ffffffffffffffffffffffffffffffffffffffff16145b6110ee576040517f08c379a00000000000000000000000000000000000000000000000000000000081526004018080602001828103825260208152602001807f4e6f7420617574686f72697a656420746f2063616e63656c20626f6f6b696e6781525060200191505060405180910390fd5b60004290506201518081016000808481526020019081526020016000206006015411611165576040517f08c379a0000000000000000000000000000000000000000000000000000000008152600401808060200182810382526038815260200180613aaf6038913960400191505060405180910390fd5b600080600084815260200190815260200160002060050160009054906101000a900473ffffffffffffffffffffffffffffffffffffffff1690506040518060400160405280600981526020017f617661696c61626c65000000000000000000000000000000000000000000000081525060008085815260200190815260200160002060040190805190602001906111fd9291906137ed565b50600080600085815260200190815260200160002060050160006101000a81548173ffffffffffffffffffffffffffffffffffffffff021916908373ffffffffffffffffffffffffffffffffffffffff160217905550600080600085815260200190815260200160002060060181905550600080600085815260200190815260200160002060070160006101000a81548160ff0219169083151502179055506000620151808360008087815260200190815260200160002060060154036000808781526020019081526020016000206003015402816112d857fe5b0490508173ffffffffffffffffffffffffffffffffffffffff166108fc829081150290604051600060405180830381858888f19350505050158015611321573d6000803e3d6000fd5b50600360008373ffffffffffffffffffffffffffffffffffffffff1673ffffffffffffffffffffffffffffffffffffffff1681526020019081526020016000206000808201600090556001820160009055600282016000611382919061386d565b600382016000611392919061386d565b505050505050565b600b60010160009054906101000a900473ffffffffffffffffffffffffffffffffffffffff1673ffffffffffffffffffffffffffffffffffffffff163373ffffffffffffffffffffffffffffffffffffffff1614611460576040517f08c379a000000000000000000000000000000000000000000000000000000000815260040180806020018281038252601a8152602001807f4f6e6c792074686520626f6f6b65722063616e2063616e63656c00000000000081525060200191505060405180910390fd5b600b60010160009054906101000a900473ffffffffffffffffffffffffffffffffffffffff1673ffffffffffffffffffffffffffffffffffffffff166108fc600b600301549081150290604051600060405180830381858888f193505050501580156114d0573d6000803e3d6000fd5b50600b6000808201600090556001820160006101000a81549073ffffffffffffffffffffffffffffffffffffffff0219169055600282016000905560038201600090556004820160006101000a81549060ff02191690555050565b6000602052806000526040600020600091509050806000015490806001018054600181600116156101000203166002900480601f0160208091040260200160405190810160405280929190818152602001828054600181600116156101000203166002900480156115dd5780601f106115b2576101008083540402835291602001916115dd565b820191906000526020600020905b8154815290600101906020018083116115c057829003601f168201915b505050505090806002018054600181600116156101000203166002900480601f01602080910402602001604051908101604052809291908181526020018280546001816001161561010002031660029004801561167b5780601f106116505761010080835404028352916020019161167b565b820191906000526020600020905b81548152906001019060200180831161165e57829003601f168201915b505050505090806003015490806004018054600181600116156101000203166002900480601f01602080910402602001604051908101604052809291908181526020018280546001816001161561010002031660029004801561171f5780601f106116f45761010080835404028352916020019161171f565b820191906000526020600020905b81548152906001019060200180831161170257829003601f168201915b5050505050908060050160009054906101000a900473ffffffffffffffffffffffffffffffffffffffff16908060060154908060070160009054906101000a900460ff1690806009018054600181600116156101000203166002900480601f0160208091040260200160405190810160405280929190818152602001828054600181600116156101000203166002900480156117fc5780601f106117d1576101008083540402835291602001916117fc565b820191906000526020600020905b8154815290600101906020018083116117df57829003601f168201915b5050505050905089565b60008111801561181857506004548111155b61188a576040517f08c379a000000000000000000000000000000000000000000000000000000000815260040180806020018281038252600f8152602001807f496e76616c696420726f6f6d204944000000000000000000000000000000000081525060200191505060405180910390fd5b60008082815260200190815260200160002060050160009054906101000a900473ffffffffffffffffffffffffffffffffffffffff1673ffffffffffffffffffffffffffffffffffffffff163373ffffffffffffffffffffffffffffffffffffffff1614611943576040517f08c379a0000000000000000000000000000000000000000000000000000000008152600401808060200182810382526027815260200180613b586027913960400191505060405180910390fd5b60008082815260200190815260200160002060070160009054906101000a900460ff166119bb576040517f08c379a0000000000000000000000000000000000000000000000000000000008152600401808060200182810382526025815260200180613ae76025913960400191505060405180910390fd5b6040518060400160405280600981526020017f617661696c61626c6500000000000000000000000000000000000000000000008152506000808381526020019081526020016000206004019080519060200190611a199291906137ed565b50600080600083815260200190815260200160002060050160006101000a81548173ffffffffffffffffffffffffffffffffffffffff021916908373ffffffffffffffffffffffffffffffffffffffff160217905550600080600083815260200190815260200160002060060181905550600080600083815260200190815260200160002060070160006101000a81548160ff021916908315150217905550600360003373ffffffffffffffffffffffffffffffffffffffff1673ffffffffffffffffffffffffffffffffffffffff1681526020019081526020016000206000808201600090556001820160009055600282016000611b18919061386d565b600382016000611b28919061386d565b50507ff40fbb8e8e08705025872260512dd36f7614d8b7467ec1f0be8a893ba19894cf8133604051808381526020018273ffffffffffffffffffffffffffffffffffffffff1673ffffffffffffffffffffffffffffffffffffffff1681526020019250505060405180910390a150565b600b60040160009054906101000a900460ff1615611c1e576040517f08c379a00000000000000000000000000000000000000000000000000000000081526004018080602001828103825260188152602001807f42756666657420697320616c726561647920626f6f6b6564000000000000000081525060200191505060405180910390fd5b6000670de0b6b3a764000090508181023414611ca2576040517f08c379a00000000000000000000000000000000000000000000000000000000081526004018080602001828103825260118152602001807f496e636f7272656374207061796d656e7400000000000000000000000000000081525060200191505060405180910390fd5b6040518060a001604052808481526020013373ffffffffffffffffffffffffffffffffffffffff16815260200183815260200134815260200160011515815250600b6000820151816000015560208201518160010160006101000a81548173ffffffffffffffffffffffffffffffffffffffff021916908373ffffffffffffffffffffffffffffffffffffffff160217905550604082015181600201556060820151816003015560808201518160040160006101000a81548160ff021916908315150217905550905050505050565b60026020528060005260406000206000915090508054600181600116156101000203166002900480601f016020809104026020016040519081016040528092919081815260200182805460018160011615610100020316600290048015611e195780601f10611dee57610100808354040283529160200191611e19565b820191906000526020600020905b815481529060010190602001808311611dfc57829003601f168201915b505050505081565b600560009054906101000a900473ffffffffffffffffffffffffffffffffffffffff1673ffffffffffffffffffffffffffffffffffffffff163373ffffffffffffffffffffffffffffffffffffffff1614611ec7576040517f08c379a0000000000000000000000000000000000000000000000000000000008152600401808060200182810382526027815260200180613a636027913960400191505060405180910390fd5b60006001600083815260200190815260200160002060006101000a81548160ff0219169083151502179055507f20ab4e48c45b9d30dee64bedb5fc798145aac958711d51938ebbffb156df2464816040518082815260200191505060405180910390a150565b600560009054906101000a900473ffffffffffffffffffffffffffffffffffffffff1673ffffffffffffffffffffffffffffffffffffffff163373ffffffffffffffffffffffffffffffffffffffff161480611fe9575060008082815260200190815260200160002060050160009054906101000a900473ffffffffffffffffffffffffffffffffffffffff1673ffffffffffffffffffffffffffffffffffffffff163373ffffffffffffffffffffffffffffffffffffffff16145b61205b576040517f08c379a000000000000000000000000000000000000000000000000000000000815260040180806020018281038252600e8152602001807f4e6f7420617574686f72697a656400000000000000000000000000000000000081525060200191505060405180910390fd5b600180600083815260200190815260200160002060006101000a81548160ff0219169083151502179055507fe9efb014ea542a671c1cc1b205be8db3f1528c775983f41048c5cfed5ab22df4816040518082815260200191505060405180910390a150565b60045481565b600660040160009054906101000a900460ff161561214c576040517f08c379a00000000000000000000000000000000000000000000000000000000081526004018080602001828103825260168152602001807f48616c6c20697320616c726561647920626f6f6b65640000000000000000000081525060200191505060405180910390fd5b80671bc16d674ec800000234146121cb576040517f08c379a00000000000000000000000000000000000000000000000000000000081526004018080602001828103825260118152602001807f496e636f7272656374207061796d656e7400000000000000000000000000000081525060200191505060405180910390fd5b6040518060a001604052808381526020013373ffffffffffffffffffffffffffffffffffffffff1681526020018281526020013481526020016001151581525060066000820151816000015560208201518160010160006101000a81548173ffffffffffffffffffffffffffffffffffffffff021916908373ffffffffffffffffffffffffffffffffffffffff160217905550604082015181600201556060820151816003015560808201518160040160006101000a81548160ff0219169083151502179055509050505050565b600660010160009054906101000a900473ffffffffffffffffffffffffffffffffffffffff1673ffffffffffffffffffffffffffffffffffffffff163373ffffffffffffffffffffffffffffffffffffffff161461235f576040517f08c379a000000000000000000000000000000000000000000000000000000000815260040180806020018281038252601a8152602001807f4f6e6c792074686520626f6f6b65722063616e2063616e63656c00000000000081525060200191505060405180910390fd5b600660010160009054906101000a900473ffffffffffffffffffffffffffffffffffffffff1673ffffffffffffffffffffffffffffffffffffffff166108fc6006600301549081150290604051600060405180830381858888f193505050501580156123cf573d6000803e3d6000fd5b5060066000808201600090556001820160006101000a81549073ffffffffffffffffffffffffffffffffffffffff0219169055600282016000905560038201600090556004820160006101000a81549060ff02191690555050565b606060008060608061243a6138b5565b600360008873ffffffffffffffffffffffffffffffffffffffff1673ffffffffffffffffffffffffffffffffffffffff1681526020019081526020016000206040518060800160405290816000820154815260200160018201548152602001600282018054600181600116156101000203166002900480601f0160208091040260200160405190810160405280929190818152602001828054600181600116156101000203166002900480156125315780601f1061250657610100808354040283529160200191612531565b820191906000526020600020905b81548152906001019060200180831161251457829003601f168201915b50505050508152602001600382018054600181600116156101000203166002900480601f0160208091040260200160405190810160405280929190818152602001828054600181600116156101000203166002900480156125d35780601f106125a8576101008083540402835291602001916125d3565b820191906000526020600020905b8154815290600101906020018083116125b657829003601f168201915b50505050508152505090508060400151816000015182602001518360600151839350809050604051806060016040528060328152602001613a0f60329139955095509550955095505091939590929450565b60016020528060005260406000206000915054906101000a900460ff1681565b600560009054906101000a900473ffffffffffffffffffffffffffffffffffffffff1681565b60008311801561267d57506004548311155b6126ef576040517f08c379a000000000000000000000000000000000000000000000000000000000815260040180806020018281038252600f8152602001807f496e76616c696420726f6f6d204944000000000000000000000000000000000081525060200191505060405180910390fd5b6127db6000808581526020019081526020016000206004018054600181600116156101000203166002900480601f01602080910402602001604051908101604052809291908181526020018280546001816001161561010002031660029004801561279b5780601f106127705761010080835404028352916020019161279b565b820191906000526020600020905b81548152906001019060200180831161277e57829003601f168201915b50505050506040518060400160405280600981526020017f617661696c61626c6500000000000000000000000000000000000000000000008152506136fe565b61284d576040517f08c379a00000000000000000000000000000000000000000000000000000000081526004018080602001828103825260158152602001807f526f6f6d206973206e6f7420617661696c61626c65000000000000000000000081525060200191505060405180910390fd5b6129046000808581526020019081526020016000206009018054600181600116156101000203166002900480601f0160208091040260200160405190810160405280929190818152602001828054600181600116156101000203166002900480156128f95780601f106128ce576101008083540402835291602001916128f9565b820191906000526020600020905b8154815290600101906020018083116128dc57829003601f168201915b5050505050826136fe565b612976576040517f08c379a00000000000000000000000000000000000000000000000000000000081526004018080602001828103825260188152602001807f526f6f6d207479706520646f6573206e6f74206d61746368000000000000000081525060200191505060405180910390fd5b81600080858152602001908152602001600020600301540234146129e5576040517f08c379a0000000000000000000000000000000000000000000000000000000008152600401808060200182810382526027815260200180613b0c6027913960400191505060405180910390fd5b60008211612a5b576040517f08c379a00000000000000000000000000000000000000000000000000000000081526004018080602001828103825260208152602001807f426f6f6b696e67206d757374206265206174206c65617374206f6e652064617981525060200191505060405180910390fd5b60004290506000620151808402820190503360008087815260200190815260200160002060050160006101000a81548173ffffffffffffffffffffffffffffffffffffffff021916908373ffffffffffffffffffffffffffffffffffffffff1602179055506040518060400160405280600681526020017f626f6f6b656400000000000000000000000000000000000000000000000000008152506000808781526020019081526020016000206004019080519060200190612b1e9291906137ed565b508060008087815260200190815260200160002060060181905550600080600087815260200190815260200160002060070160006101000a81548160ff02191690831515021790555060405180608001604052808381526020018281526020018481526020016040518060400160405280600681526020017f626f6f6b65640000000000000000000000000000000000000000000000000000815250815250600360003373ffffffffffffffffffffffffffffffffffffffff1673ffffffffffffffffffffffffffffffffffffffff16815260200190815260200160002060008201518160000155602082015181600101556040820151816002019080519060200190612c2c9291906138dd565b506060820151816003019080519060200190612c499291906138dd565b50905050600560009054906101000a900473ffffffffffffffffffffffffffffffffffffffff1673ffffffffffffffffffffffffffffffffffffffff166108fc349081150290604051600060405180830381858888f19350505050158015612cb5573d6000803e3d6000fd5b505050505050565b60008083815260200190815260200160002060050160009054906101000a900473ffffffffffffffffffffffffffffffffffffffff1673ffffffffffffffffffffffffffffffffffffffff163373ffffffffffffffffffffffffffffffffffffffff1614612d76576040517f08c379a0000000000000000000000000000000000000000000000000000000008152600401808060200182810382526025815260200180613b336025913960400191505060405180910390fd5b80600260008481526020019081526020016000209080519060200190612d9d9291906137ed565b507fa937be0874eea2bd733872f34143410c440cbf7217f748123548848c5a07fbb282826040518083815260200180602001828103825283818151815260200191508051906020019080838360005b83811015612e07578082015181840152602081019050612dec565b50505050905090810190601f168015612e345780820380516001836020036101000a031916815260200191505b50935050505060405180910390a15050565b60046000815480929190600101919050555060405180610140016040528060045481526020018381526020016040518060400160405280600781526020017f486f74656c2031000000000000000000000000000000000000000000000000008152508152602001670de0b6b3a764000081526020016040518060400160405280600981526020017f617661696c61626c6500000000000000000000000000000000000000000000008152508152602001600073ffffffffffffffffffffffffffffffffffffffff168152602001600081526020016000151581526020016000604051908082528060200260200182016040528015612f5857816020015b6060815260200190600190039081612f435790505b508152602001828152506000806004548152602001908152602001600020600082015181600001556020820151816001019080519060200190612f9c9291906138dd565b506040820151816002019080519060200190612fb99291906138dd565b50606082015181600301556080820151816004019080519060200190612fe09291906138dd565b5060a08201518160050160006101000a81548173ffffffffffffffffffffffffffffffffffffffff021916908373ffffffffffffffffffffffffffffffffffffffff16021790555060c0820151816006015560e08201518160070160006101000a81548160ff02191690831515021790555061010082015181600801908051906020019061306f92919061395d565b5061012082015181600901908051906020019061308d9291906138dd565b509050505050565b60068060000154908060010160009054906101000a900473ffffffffffffffffffffffffffffffffffffffff16908060020154908060030154908060040160009054906101000a900460ff16905085565b6000811180156130f857506004548111155b61316a576040517f08c379a000000000000000000000000000000000000000000000000000000000815260040180806020018281038252600f8152602001807f496e76616c696420726f6f6d204944000000000000000000000000000000000081525060200191505060405180910390fd5b60008082815260200190815260200160002060050160009054906101000a900473ffffffffffffffffffffffffffffffffffffffff1673ffffffffffffffffffffffffffffffffffffffff163373ffffffffffffffffffffffffffffffffffffffff1614613223576040517f08c379a0000000000000000000000000000000000000000000000000000000008152600401808060200182810382526022815260200180613a416022913960400191505060405180910390fd5b61330f6000808381526020019081526020016000206004018054600181600116156101000203166002900480601f0160208091040260200160405190810160405280929190818152602001828054600181600116156101000203166002900480156132cf5780601f106132a4576101008083540402835291602001916132cf565b820191906000526020600020905b8154815290600101906020018083116132b257829003601f168201915b50505050506040518060400160405280600681526020017f626f6f6b656400000000000000000000000000000000000000000000000000008152506136fe565b613381576040517f08c379a00000000000000000000000000000000000000000000000000000000081526004018080602001828103825260138152602001807f526f6f6d206d75737420626520626f6f6b65640000000000000000000000000081525060200191505060405180910390fd5b60008082815260200190815260200160002060070160009054906101000a900460ff1615613417576040517f08c379a000000000000000000000000000000000000000000000000000000000815260040180806020018281038252601b8152602001807f477565737420697320616c726561647920636865636b656420696e000000000081525060200191505060405180910390fd5b600160008083815260200190815260200160002060070160006101000a81548160ff0219169083151502179055506040518060400160405280600881526020017f6f6363757069656400000000000000000000000000000000000000000000000081525060008083815260200190815260200160002060040190805190602001906134a39291906137ed565b506040518060400160405280600881526020017f6f63637570696564000000000000000000000000000000000000000000000000815250600360003373ffffffffffffffffffffffffffffffffffffffff1673ffffffffffffffffffffffffffffffffffffffff168152602001908152602001600020600301908051906020019061352f9291906137ed565b507f70790c0ab38e2aca9b5520985fe66db2a3700c3680b61c3853b5554f67a2c31c8133604051808381526020018273ffffffffffffffffffffffffffffffffffffffff1673ffffffffffffffffffffffffffffffffffffffff1681526020019250505060405180910390a150565b6003602052806000526040600020600091509050806000015490806001015490806002018054600181600116156101000203166002900480601f0160208091040260200160405190810160405280929190818152602001828054600181600116156101000203166002900480156136565780601f1061362b57610100808354040283529160200191613656565b820191906000526020600020905b81548152906001019060200180831161363957829003601f168201915b505050505090806003018054600181600116156101000203166002900480601f0160208091040260200160405190810160405280929190818152602001828054600181600116156101000203166002900480156136f45780601f106136c9576101008083540402835291602001916136f4565b820191906000526020600020905b8154815290600101906020018083116136d757829003601f168201915b5050505050905084565b6000816040516020018082805190602001908083835b602083106137375780518252602082019150602081019050602083039250613714565b6001836020036101000a03801982511681845116808217855250505050505090500191505060405160208183030381529060405280519060200120836040516020018082805190602001908083835b602083106137a95780518252602082019150602081019050602083039250613786565b6001836020036101000a0380198251168184511680821785525050505050509050019150506040516020818303038152906040528051906020012014905092915050565b828054600181600116156101000203166002900490600052602060002090601f016020900481019282601f1061382e57805160ff191683800117855561385c565b8280016001018555821561385c579182015b8281111561385b578251825591602001919060010190613840565b5b50905061386991906139bd565b5090565b50805460018160011615610100020316600290046000825580601f1061389357506138b2565b601f0160209004906000526020600020908101906138b191906139bd565b5b50565b6040518060800160405280600081526020016000815260200160608152602001606081525090565b828054600181600116156101000203166002900490600052602060002090601f016020900481019282601f1061391e57805160ff191683800117855561394c565b8280016001018555821561394c579182015b8281111561394b578251825591602001919060010190613930565b5b50905061395991906139bd565b5090565b8280548282559060005260206000209081019282156139ac579160200282015b828111156139ab57825182908051906020019061399b9291906138dd565b509160200191906001019061397d565b5b5090506139b991906139e2565b5090565b6139df91905b808211156139db5760008160009055506001016139c3565b5090565b90565b613a0b91905b80821115613a0757600081816139fe919061386d565b506001016139e8565b5090565b9056fe596f752063616e2063616e63656c20626f6f6b696e67206265666f726520323420686f757273206f6620656e6420646174654f6e6c792074686520626f6f6b65642067756573742063616e20636865636b20696e4f6e6c7920746865206f776e65722063616e20636f6d706c657465206d61696e74656e616e6365526f6f6d20697320616c726561647920617661696c61626c65206f72206f6363757069656443616e63656c6c6174696f6e20616c6c6f776564206f6e6c79206265666f726520323420686f757273206f6620626f6f6b696e6720656e644775657374206d75737420626520636865636b656420696e20746f20636865636b206f7574416d6f756e742073656e74206d75737420626520657175616c20746f20726f6f6d2070726963654f6e6c79207468652067756573742063616e206f7264657220726f6f6d20736572766963654f6e6c792074686520636865636b65642d696e2067756573742063616e20636865636b206f7574a265627a7a7231582085424821be15f5f88ee195e98fb6b26aba550087b73eed412a6bcae56d1a3c5f64736f6c63430005100032",
  "source": "// SPDX-License-Identifier: MIT\r\npragma solidity ^0.5.16;\r\n\r\ncontract Hotel {\r\n    struct Room {\r\n        uint id;\r\n        string name;\r\n        string hotel_name;\r\n        uint price;\r\n        string status;\r\n        address payable guest;\r\n        uint bookingExpires;\r\n        bool isCheckedIn;\r\n        string[] suvidha;\r\n        string roomType; // Added roomType to the Room struct\r\n    }\r\n\r\n    struct HallBooking {\r\n        uint date;\r\n        address payable booker;\r\n        uint duration;\r\n        uint price;\r\n        bool isBooked;\r\n    }\r\n\r\n    struct BuffetBooking {\r\n        uint date;\r\n        address payable booker;\r\n        uint attendees;\r\n        uint price;\r\n        bool isBooked;\r\n    }\r\n\r\n    struct BookingDetails {\r\n        uint startDate;\r\n        uint endDate;\r\n        string roomType;\r\n        string status;\r\n    }\r\n\r\n    mapping (uint => Room) public rooms;\r\n    mapping (uint => bool) public maintenanceRequired;\r\n    mapping (uint => string) public roomServiceOrders;\r\n    mapping (address => BookingDetails) public bookingDetails;\r\n    uint public roomsCount;\r\n    address payable public owner;\r\n    HallBooking public partyHall;\r\n    BuffetBooking public foodBuffet;\r\n\r\n    event CheckedIn(uint roomId, address guest);\r\n    event CheckedOut(uint roomId, address guest);\r\n    event MaintenanceRequested(uint roomId);\r\n    event MaintenanceCompleted(uint roomId);\r\n    event RoomServiceOrdered(uint roomId, string orderDetails);\r\n\r\n    constructor() public {\r\n        owner = msg.sender;\r\n        addRoom(\"Room 1\", \"single\");\r\n        addRoom(\"Room 2\", \"double\");\r\n        addRoom(\"Room 3\", \"suite\");\r\n    }\r\n\r\n    function addRoom(string memory _name, string memory _roomType) public {\r\n        roomsCount++;\r\n        rooms[roomsCount] = Room(roomsCount, _name, 'Hotel 1', 1 ether, 'available', address(0), 0, false, new string[](0), _roomType);\r\n    }\r\n\r\n    function bookRoom(uint _roomId, uint _days, string memory _roomType) public payable {\r\n        require(_roomId > 0 && _roomId <= roomsCount, \"Invalid room ID\");\r\n        require(compareStrings(rooms[_roomId].status, \"available\"), \"Room is not available\");\r\n        require(compareStrings(rooms[_roomId].roomType, _roomType), \"Room type does not match\");\r\n        require(msg.value == rooms[_roomId].price * _days, \"Amount sent must be equal to room price\");\r\n        require(_days > 0, \"Booking must be at least one day\");\r\n\r\n        uint startDate = now;\r\n        uint endDate = startDate + (_days * 1 days);\r\n\r\n        rooms[_roomId].guest = msg.sender;\r\n        rooms[_roomId].status = \"booked\";\r\n        rooms[_roomId].bookingExpires = endDate;\r\n        rooms[_roomId].isCheckedIn = false;\r\n\r\n        bookingDetails[msg.sender] = BookingDetails(startDate, endDate, _roomType, \"booked\");\r\n\r\n        owner.transfer(msg.value);\r\n    }\r\n\r\n    function checkIn(uint _roomId) public {\r\n        require(_roomId > 0 && _roomId <= roomsCount, \"Invalid room ID\");\r\n        require(msg.sender == rooms[_roomId].guest, \"Only the booked guest can check in\");\r\n        require(compareStrings(rooms[_roomId].status, \"booked\"), \"Room must be booked\");\r\n        require(!rooms[_roomId].isCheckedIn, \"Guest is already checked in\");\r\n        \r\n        rooms[_roomId].isCheckedIn = true;\r\n        rooms[_roomId].status = \"occupied\";\r\n        bookingDetails[msg.sender].status = \"occupied\";\r\n        emit CheckedIn(_roomId, msg.sender);\r\n    }\r\n\r\n    function checkOut(uint _roomId) public {\r\n        require(_roomId > 0 && _roomId <= roomsCount, \"Invalid room ID\");\r\n        require(msg.sender == rooms[_roomId].guest, \"Only the checked-in guest can check out\");\r\n        require(rooms[_roomId].isCheckedIn, \"Guest must be checked in to check out\");\r\n\r\n        rooms[_roomId].status = \"available\";\r\n        rooms[_roomId].guest = address(0);\r\n        rooms[_roomId].bookingExpires = 0;\r\n        rooms[_roomId].isCheckedIn = false;\r\n\r\n        delete bookingDetails[msg.sender];\r\n\r\n        emit CheckedOut(_roomId, msg.sender);\r\n    }\r\n\r\n    function cancelBooking(uint _roomId) public {\r\n        require(_roomId > 0 && _roomId <= roomsCount, \"Invalid room ID\");\r\n        require(compareStrings(rooms[_roomId].status, \"booked\"), \"Room is already available or occupied\");\r\n        require(msg.sender == owner || msg.sender == rooms[_roomId].guest, \"Not authorized to cancel booking\");\r\n\r\n        uint currentTime = now;\r\n        require(rooms[_roomId].bookingExpires > currentTime + 1 days, \"Cancellation allowed only before 24 hours of booking end\");\r\n\r\n        address payable guest = rooms[_roomId].guest;\r\n        rooms[_roomId].status = \"available\";\r\n        rooms[_roomId].guest = address(0);\r\n        rooms[_roomId].bookingExpires = 0;\r\n        rooms[_roomId].isCheckedIn = false;\r\n\r\n        uint refundAmount = rooms[_roomId].price * (rooms[_roomId].bookingExpires - currentTime) / 1 days;\r\n\r\n        guest.transfer(refundAmount);\r\n\r\n        delete bookingDetails[guest];\r\n    }\r\n\r\n    function currentStatus(address _guest) public view returns (string memory, uint, uint, string memory, string memory) {\r\n        BookingDetails memory details = bookingDetails[_guest];\r\n        return (details.roomType, details.startDate, details.endDate, details.status, \"You can cancel booking before 24 hours of end date\");\r\n    }\r\n\r\n    function requestMaintenance(uint roomId) public {\r\n        require(msg.sender == owner || msg.sender == rooms[roomId].guest, \"Not authorized\");\r\n        maintenanceRequired[roomId] = true;\r\n        emit MaintenanceRequested(roomId);\r\n    }\r\n\r\n    function completeMaintenance(uint roomId) public {\r\n        require(msg.sender == owner, \"Only the owner can complete maintenance\");\r\n        maintenanceRequired[roomId] = false;\r\n        emit MaintenanceCompleted(roomId);\r\n    }\r\n\r\n    function orderRoomService(uint roomId, string memory orderDetails) public {\r\n        require(msg.sender == rooms[roomId].guest, \"Only the guest can order room service\");\r\n        roomServiceOrders[roomId] = orderDetails;\r\n        emit RoomServiceOrdered(roomId, orderDetails);\r\n    }\r\n\r\n    function bookPartyHall(uint _date, uint _duration) public payable {\r\n        require(!partyHall.isBooked, \"Hall is already booked\");\r\n        require(msg.value == 2 ether * _duration, \"Incorrect payment\");\r\n\r\n        partyHall = HallBooking(_date, msg.sender, _duration, msg.value, true);\r\n    }\r\n\r\n    function cancelPartyHallBooking() public {\r\n        require(msg.sender == partyHall.booker, \"Only the booker can cancel\");\r\n        partyHall.booker.transfer(partyHall.price);\r\n        delete partyHall;\r\n    }\r\n\r\n    function bookBuffet(uint _date, uint _attendees) public payable {\r\n        require(!foodBuffet.isBooked, \"Buffet is already booked\");\r\n        uint pricePerPerson = 1 ether;\r\n        require(msg.value == pricePerPerson * _attendees, \"Incorrect payment\");\r\n\r\n        foodBuffet = BuffetBooking(_date, msg.sender, _attendees, msg.value, true);\r\n    }\r\n\r\n    function cancelBuffetBooking() public {\r\n        require(msg.sender == foodBuffet.booker, \"Only the booker can cancel\");\r\n        foodBuffet.booker.transfer(foodBuffet.price);\r\n        delete foodBuffet;\r\n    }\r\n\r\n    function compareStrings(string memory a, string memory b) private pure returns (bool) {\r\n        return keccak256(abi.encodePacked(a)) == keccak256(abi.encodePacked(b));\r\n    }\r\n}",
  "sourcePath": "C:\\Users\\SURAJ WALIA\\Desktop\\New\\contracts\\Hotel.sol",
  "compiler": {
    "name": "solc",
    "version": "0.5.16+commit.9c3226ce.Emscripten.clang"
  },
  "schemaVersion": "3.4.16",
  "updatedAt": "2024-05-21T11:07:40.599Z",
  "devdoc": {
    "methods": {}
  },
  "userdoc": {
    "methods": {}
  }
}